:100000000C942A000C9436000C9444000C94340098
:100010000C9434000C9434000C9434000C94340090
:100020000C9434000C9434000C9434000C94340080
:100030000C9434000C9434000C9434000C94340070
:100040000C9434000C9434000C9434000C94340060
:100050000C94340011241FBECFE5D8E0DEBFCDBF25
:100060000E9457000C945F000C9400001F920F92A6
:100070000FB60F9211248F938FE088BB8F910F9052
:100080000FBE0F901F9018951F920F920FB60F92F0
:1000900011248F9380EF88BB8F910F900FBE0F902C
:1000A0001F9018958AE085BF80EC8BBF08958FEF75
:1000B00087BB8AE085BF80EC8BBF7894FFCFF89434
:0200C000FFCF70
:00000001FF
